:100000000C9434000C9449000C9449000C94490061
:100010000C9449000C9449000C9449000C9449003C
:100020000C9449000C9449000C9449000C9449002C
:100030000C9449000C9449000C9449000C9449001C
:100040000C9449000C9449000C9449000C9449000C
:100050000C9449000C9449000C9449000C944900FC
:100060000C9449000C94490011241FBECFEFD8E036
:10007000DEBFCDBF11E0A0E0B1E0E2E0F2E002C0FF
:1000800005900D92A630B107D9F70E94C3000C94D9
:10009000FF000C9400009091C00095FFFCCF80936E
:1000A000C60008950F931F93CF93DF938C01C0E098
:1000B000D0E007C0F801EC0FFD1F80810E944B00CB
:1000C0002196F80101900020E9F73197E01BF10B30
:1000D000CE17DF0778F3DF91CF911F910F9108952D
:1000E0001092C50087E68093C400E2ECF0E08081C6
:1000F00086608083E1ECF0E08081886180830895F0
:10010000EAE7F0E0808180648083809178009091BC
:1001100079000895CF93DF9300D000D01F92CDB720
:10012000DEB78091C0008823E4F78091C600873451
:1001300061F40E9480004AE0BE016F5F7F4F0E9421
:10014000CA00CE0101960E9452008091C6008D34F3
:1001500021F480E091E00E9452008091C6000F904F
:100160000F900F900F900F90DF91CF910895ECE7D3
:10017000F0E0808181648083EAE7F0E08081876C31
:100180008083789408950E9470000E94B7000E94B6
:100190008A00FDCFBB274A3031F4992322F4BDE217
:1001A000909581959F4F0C94D600BB27FB01552756
:1001B000AA27880F991FAA1FA41710F0A41B8395C4
:1001C0005051B9F7A05DAA3308F0A95DA19300973B
:1001D00079F7B111B1931192CB010C94EF00DC01CE
:1001E000FC01672F71917723E1F7329704C07C916E
:1001F0006D9370836291AE17BF07C8F30895F894AA
:02020000FFCF2E
:0602020074203D200A00FB
:00000001FF
