:100000000C9434000C9449000C9449000C94490061
:100010000C9449000C9449000C9449000C9449003C
:100020000C9449000C9449000C9449000C9449002C
:100030000C9449000C9449000C9449000C9449001C
:100040000C9449000C9449000C9449000C9449000C
:100050000C9449000C9449000C9449000C944900FC
:100060000C9449000C94490011241FBECFEFD8E036
:10007000DEBFCDBF11E0A0E0B1E0E8E2F1E002C0F8
:1000800005900D92A630B107D9F70E948D000C940F
:1000900092000C9400001092C50087E68093C40083
:1000A000E2ECF0E0808186608083E1ECF0E080812A
:1000B0008861808308959091C00095FFFCCF809364
:1000C000C60008950F931F93CF93DF938C01C0E078
:1000D000D0E007C0F801EC0FFD1F80810E945B009B
:1000E0002196F80101900020E9F73197E01BF10B10
:1000F000CE17DF0778F3DF91CF911F910F9108950D
:100100008091C0008823E4F78091C600873421F4F1
:1001100080E091E00E94620008950E944B000E94DE
:080120008000FDCFF894FFCF31
:0601280056203D200A00F4
:00000001FF
