S00C00004C6162352E73726563D4
S11300000C9434000C9449000C9449000C9449005D
S11300100C9449000C9449000C9449000C94490038
S11300200C9449000C9449000C9449000C94490028
S11300300C9449000C9449000C9449000C94490018
S11300400C9449000C9449000C9449000C94490008
S11300500C9449000C9449000C9449000C944900F8
S11300600C9449000C94490011241FBECFEFD8E032
S1130070DEBFCDBF11E0A0E0B1E0ECE7FDE002C0DF
S113008005900D92A633B107D9F70E9475010C941F
S1130090BC060C9400009091C00095FFFCCF8093A7
S11300A0C60008950F931F93CF93DF938C01C0E094
S11300B0D0E007C0F801EC0FFD1F80810E944B00C7
S11300C02196F80101900020E9F73197E01BF10B2C
S11300D0CE17DF0778F3DF91CF911F910F91089529
S11300E01092C50087E68093C400E2ECF0E08081C2
S11300F086608083E1ECF0E08081886180830895EC
S1130100EAE7F0E0808180648083809178009091B8
S1130110790008958091C0008823E4F78091C60097
S113012090E00895ECE7F0E0808181648083EAE761
S1130130F0E08081876C808308950E948000BC0178
S113014080E090E00E947C0220E030E040EA50E44D
S11301500E940A0320E030E040E85AE30E940A03C8
S113016008952F923F924F925F926F927F928F9257
S11301709F92AF92BF92CF92DF92EF92FF920F9332
S11301801F93CF93DF9300D000D01F92CDB7DEB77B
S11301906C011B017B0151C080E091E00E94520080
S11301A0FF92EF9285E091E09F938F938E010F5F12
S11301B01F4F1F930F930E94C203C8010E94520055
S11301C088E091E00E9452000E949D002B013C01B6
S11301D00E9446024B015C01072E000C880B990B10
S11301E00E947E029B01AC01C301B2010E94D901AD
S11301F020E030E048EC52E40E940A030E944602E8
S11302007F936F939F928F9281E191E09F938F935D
S11302101F930F930E94C203C8010E94520089E1F8
S113022091E00E94520081E0C81AD108E20CF31C4C
S11302300FB6F894DEBF0FBECDBF1C141D040CF422
S1130240ABCF0F900F900F900F900F90DF91CF9145
S11302501F910F91FF90EF90DF90CF90BF90AF90E0
S11302609F908F907F906F905F904F903F902F90D2
S11302700895CF92DF92EF92FF920F931F93CF9343
S1130280DF93CDB7DEB72A970FB6F894DEBF0FBE63
S1130290CDBF6C010E948A0000E010E013C04AE068
S11302A0BE016F5F7F4F0E9495037601E00EF11E41
S11302B0CE0101960E947703F70180830F5F1F4FE1
S11302C00E948A008A30910551F7C6012A960FB61A
S11302D0F894DEBF0FBECDBFDF91CF911F910F9178
S11302E0FF90EF90DF90CF900895CF93DF93CDB739
S11302F0DEB76E970FB6F894DEBF0FBECDBF0E9477
S113030070000E9492008E010B5E1F4F8AE0F8017C
S113031011928A95E9F7C8010E9439018CE191E0B4
S11303200E945200C8010E9452008AE191E00E949A
S113033052008D89873491F50E949D004B015C0128
S11303400E9446026B017C01072E000C880B990B5E
S11303500E947E029B01AC01C501B4010E94D90137
S113036020E030E048EC52E40E940A030E94460276
S11303707F936F93DF92CF9288E291E09F938F9364
S1130380045111091F930F930E94C203C8010E94D4
S113039052000FB6F894DEBF0FBECDBF8D898D34E9
S11303A009F0B1CF6AE070E085E090E00E94B1000E
S11303B0AACF5058BB27AA270E94F1010C94D0025F
S11303C00E94C20238F00E94C90220F039F49F3F13
S11303D019F426F40C94BF020EF4E095E7FB0C9498
S11303E0B902E92F0E94E10258F3BA1762077307B2
S11303F08407950720F079F4A6F50C9403030EF412
S1130400E0950B2EBA2FA02D0B01B90190010C0120
S1130410CA01A0011124FF27591B99F0593F50F438
S1130420503E68F11A16F040A22F232F342F442790
S1130430585FF3CF469537952795A795F040539588
S1130440C9F77EF41F16BA0B620B730B840BBAF058
S11304509150A1F0FF0FBB1F661F771F881FC2F7C3
S11304600EC0BA0F621F731F841F48F487957795D7
S11304706795B795F7959E3F08F0B0CF9395880F91
S113048008F09927EE0F9795879508950E944D02DD
S11304906894B1110C94040308950E94E90288F051
S11304A09F5798F0B92F9927B751B0F0E1F0660F34
S11304B0771F881F991F1AF0BA95C9F714C0B13075
S11304C091F00E940303B1E008950C940303672F95
S11304D0782F8827B85F39F0B93FCCF386957795A4
S11304E06795B395D9F73EF490958095709561958D
S11304F07F4F8F4F9F4F0895E89409C097FB3EF4B8
S113050090958095709561957F4F8F4F9F4F99235C
S1130510A9F0F92F96E9BB279395F69587957795DA
S11305206795B795F111F8CFFAF4BB0F11F460FF9A
S11305301BC06F5F7F4F8F4F9F4F16C0882311F0F2
S113054096E911C0772321F09EE8872F762F05C006
S1130550662371F096E8862F70E060E02AF09A95A1
S1130560660F771F881FDAF7880F9695879597F996
S1130570089597F99F6780E870E060E008959FEF21
S113058080EC089500240A94161617061806090626
S1130590089500240A9412161306140605060895F5
S11305A0092E0394000C11F4882352F0BB0F40F47D
S11305B0BF2B11F460FF04C06F5F7F4F8F4F9F4FBD
S11305C0089557FD9058440F551F59F05F3F71F03F
S11305D04795880F97FB991F61F09F3F79F08795A6
S11305E00895121613061406551FF2CF4695F1DF2F
S11305F008C0161617061806991FF1CF86957105BF
S1130600610508940895E894BB2766277727CB01F2
S113061097F908950E941D030C94D0020E94C2020F
S113062038F00E94C90220F0952311F00C94B9020D
S11306300C94BF0211240C9404030E94E10270F391
S1130640959FC1F3950F50E0551F629FF001729F73
S1130650BB27F00DB11D639FAA27F00DB11DAA1F82
S1130660649F6627B00DA11D661F829F2227B00DCF
S1130670A11D621F739FB00DA11D621F839FA00D5A
S1130680611D221F749F3327A00D611D231F849FAA
S1130690600D211D822F762F6A2F11249F57504001
S11306A09AF0F1F088234AF0EE0FFF1FBB1F661F7C
S11306B0771F881F91505040A9F79E3F510580F045
S11306C00C94B9020C9404035F3FE4F3983ED4F312
S11306D0869577956795B795F795E7959F5FC1F7E9
S11306E0FE2B880F911D9695879597F90895FC0127
S11306F088279927E89421912032E9F3293010F0D2
S11307002E30C8F32B3241F02D3239F4689404C0F2
S11307100E94A003820F911D219120532A30C0F31F
S11307201EF4909581959F4F0895BB274A3031F46C
S1130730992322F4BDE2909581959F4F0C94A903CF
S11307407AE0979F902D879F802D910D1124089515
S1130750BB27FB015527AA27880F991FAA1FA41797
S113076010F0A41B83955051B9F7A05DAA3308F08B
S1130770A95DA193009779F7B111B1931192CB01BF
S11307800C94DB05AEE0B0E0E8ECF3E00C949306E7
S11307900D891E8986E08C831A8309838FEF9FE776
S11307A09E838D83AE01475E5F4F6F89788DCE0146
S11307B001960E94E403EF81F885E00FF11F108297
S11307C02E96E4E00C94AF06ABE0B0E0EAEEF3E082
S11307D00C9485066C017B018A01FC011782168248
S11307E0838181FFCCC1CE0101963C01F601938146
S11307F0F70193FD859193FF81917F01882309F48B
S1130800BAC1853239F493FD859193FF81917F01BB
S1130810853229F4B60190E00E94EB05E7CF912CD4
S1130820212C312CFFE1F315D8F08B3279F038F418
S1130830803279F08332A1F4232D20611DC08D32E2
S113084061F0803369F4232D216016C0832D82600A
S1130850382EE32DE4603E2E2AC0F32DF8601DC02F
S113086037FC2DC020ED280F2A3040F08E32B9F429
S113087036FC81C1232D2064322E19C036FE06C0F9
S11308808AE0989E200D1124922E11C0EAE02E9E3B
S1130890200D1124222EF32DF0623F2E08C08C3639
S11308A021F4832D8068382E02C0883641F4F70184
S11308B093FD859193FF81917F018111B3CF982F8F
S11308C09F7D9554933028F40C5F1F4F9FE39983C9
S11308D00DC0833631F0833771F0833509F059C088
S11308E021C0F801808189830E5F1F4F882483947F
S11308F0912C530113C02801F2E04F0E511CF80152
S1130900A080B18036FE03C0692D70E002C06FEF95
S11309107FEFC5010E94D0054C018201F32DFF77C2
S11309203F2E16C0280122E0420E511CF801A0807F
S1130930B18036FE03C0692D70E002C06FEF7FEF17
S1130940C5010E94C5054C01F32DF0683F2E8201BC
S113095033FC1BC0822D90E088169906B0F4B601D2
S113096080E290E00E94EB052A94F4CFF50137FC75
S1130970859137FE81915F01B60190E00E94EB05FD
S113098021102A9421E0821A91088114910471F7AC
S1130990E8C0843611F0893641F5F80137FE07C006
S11309A060817181828193810C5F1F4F08C06081D7
S11309B07181072E000C880B990B0E5F1F4FF32DCE
S11309C0FF763F2E97FF09C09095809570956195AD
S11309D07F4F8F4F9F4FF0683F2E2AE030E0A301F6
S11309E00E942706882E861845C0853731F4232DAA
S11309F02F7EB22E2AE030E025C0932D997FB92EA8
S1130A008F36C1F018F4883579F0B5C0803719F005
S1130A10883721F0B0C0E92FE061BE2EB4FE0DC0CE
S1130A20FB2DF460BF2E09C034FE0AC0292F2660B6
S1130A30B22E06C028E030E005C020E130E002C05C
S1130A4020E132E0F801B7FE07C060817181828144
S1130A5093810C5F1F4F06C06081718180E090E03C
S1130A600E5F1F4FA3010E942706882E8618FB2DB8
S1130A70FF773F2E36FE0DC0232D2E7FA22E891424
S1130A8058F434FE0BC032FC09C0832D8E7EA82E90
S1130A9005C0B82CA32C03C0B82C01C0B92CA4FEEB
S1130AA00FC0FE01E80DF11D8081803321F49A2DE1
S1130AB0997EA92E09C0A2FE06C0B394B39404C0C3
S1130AC08A2D867809F0B394A3FC11C0A0FE06C059
S1130AD0B21488F4280C922C9B180EC0B21460F443
S1130AE0B60180E290E00E94EB05B394F7CFB21414
S1130AF018F42B1802C0982C212CA4FE10C0B601A7
S1130B0080E390E00E94EB05A2FE17C0A1FC03C0A5
S1130B1088E790E002C088E590E0B6010CC08A2D19
S1130B20867859F0A1FE02C08BE201C080E2A7FCE6
S1130B308DE2B60190E00E94EB05891438F4B60109
S1130B4080E390E00E94EB059A94F7CF8A94F30136
S1130B50E80DF11D8081B60190E00E94EB05811043
S1130B60F5CF222009F442CEB60180E290E00E9443
S1130B70EB052A94F6CFF6018681978102C08FEFA8
S1130B809FEF2B96E2E10C94A106FC0105906150C5
S1130B9070400110D8F7809590958E0F9F1F08958F
S1130BA0FC016150704001900110D8F78095909538
S1130BB08E0F9F1F0895DC01FC01672F719177232D
S1130BC0E1F7329704C07C916D9370836291AE1704
S1130BD0BF07C8F308950F931F93CF93DF93FB01CF
S1130BE0238121FD03C08FEF9FEF2CC022FF16C08D
S1130BF046815781248135814217530744F4A081EB
S1130C00B1819D012F5F3F4F318320838C932681D7
S1130C1037812F5F3F4F3783268314C08B01EC014C
S1130C20FB010084F185E02D0995892BE1F6D801BB
S1130C3016968D919C911797019617969C938E9377
S1130C401697CE01DF91CF911F910F910895FA016C
S1130C50AA27283051F1203181F1E8946F936E7FF7
S1130C606E5F7F4F8F4F9F4FAF4FB1E03ED0B4E0E8
S1130C703CD0670F781F891F9A1FA11D680F791F29
S1130C808A1F911DA11D6A0F711D811D911DA11D3A
S1130C9020D009F468943F912AE0269F112430194A
S1130CA0305D3193DEF6CF010895462F4770405DE5
S1130CB04193B3E00FD0C9F7F6CF462F4F70405D94
S1130CC04A3318F0495D31FD4052419302D0A9F7EF
S1130CD0EACFB4E0A6959795879577956795BA95E9
S1130CE0C9F700976105710508959B01AC010A2EAF
S1130CF006945795479537952795BA95C9F7620F86
S1130D00731F841F951FA01D08952F923F924F9229
S1130D105F926F927F928F929F92AF92BF92CF9287
S1130D20DF92EF92FF920F931F93CF93DF93CDB790
S1130D30DEB7CA1BDB0B0FB6F894DEBF0FBECDBF08
S1130D4009942A88398848885F846E847D848C84D9
S1130D509B84AA84B984C884DF80EE80FD800C81E2
S1130D601B81AA81B981CE0FD11D0FB6F894DEBFC5
S10F0D700FBECDBFED010895F894FFCF35
S1130D7C74203D200025690020732C2056203D2032
S1130D8C0025642E2530327500560A00696E707584
S1130D9C745F7374723A200056203D2025642E250E
S1090DAC303275205600F0
S9030000FC
