S00C00004C6162352E73726563D4
S11300000C9434000C9449000C9449000C9449005D
S11300100C9449000C9449000C9449000C94490038
S11300200C9449000C9449000C9449000C94490028
S11300300C9449000C9449000C9449000C94490018
S11300400C9449000C9449000C9449000C94490008
S11300500C9449000C9449000C9449000C944900F8
S11300600C9449000C94490011241FBECFEFD8E032
S1130070DEBFCDBF11E0A0E0B1E0EAE4F2E002C0EF
S113008005900D92A032B107D9F70E949D000C94FF
S113009023010C9400009091C00095FFFCCF809345
S11300A0C60008950F931F93CF93DF938C01C0E094
S11300B0D0E007C0F801EC0FFD1F80810E944B00C7
S11300C02196F80101900020E9F73197E01BF10B2C
S11300D0CE17DF0778F3DF91CF911F910F91089529
S11300E01092C50087E68093C400E2ECF0E08081C2
S11300F086608083E1ECF0E08081886180830895EC
S1130100EAE7F0E0808180648083809178009091B8
S1130110790008958091C0008823E4F78091C60097
S113012090E00895ECE7F0E0808181648083EAE761
S1130130F0E08081876C80830895CF93DF9300D0B3
S113014000D01F92CDB7DEB70E9470000E949200CB
S11301500E948A008C0187349105A1F40E948000DA
S11301604AE0BE016F5F7F4F0E94EE008CE091E099
S11301700E945200CE0101960E94520089E191E052
S11301800E9452000D34110519F74AE0BE016F5F59
S11301907F4FC8010E94EE00CE0101960E945200DA
S11301A08EE191E00E94520011C00E948A008C01ED
S11301B04AE0BE016F5F7F4F0E94EE00CE010196C0
S11301C00E9452008EE191E00E9452000A30110513
S11301D061F78DE191E00E945200BACFBB274A300B
S11301E031F4992322F4BDE2909581959F4F0C94AC
S11301F0FA00BB27FB015527AA27880F991FAA1FBE
S1130200A41710F0A41B83955051B9F7A05DAA332D
S113021008F0A95DA193009779F7B111B1931192F8
S1130220CB010C941301DC01FC01672F719177233E
S1130230E1F7329704C07C916D9370836291AE179D
S10D0240BF07C8F30895F894FFCF38
S113024A74203D200025690020732C2056203D206F
S113025A0025642E253032750020560A000A0A0049
S9030000FC
